:020000040800F2
:1000000058E001200D150008150700081707000823
:100010001B0700081F070008230700080000000056
:100020000000000000000000000000001F15000894
:100030002707000800000000596E01084D4900081C
:1000400027150008271500082715000827150008A0
:100050002715000827150008271500082715000890
:100060002715000827150008271500082715000880
:100070002715000827150008271500082715000870
:100080002715000827150008271500082715000860
:100090002715000827150008271500082715000850
:1000A0002715000827150008271500082715000840
:1000B00027150008950D0008215200082715000893
:1000C0002715000827150008271500082715000820
:1000D000271500081F4B00082715000827150008E2
:1000E0002715000827150008271500082715000800
:1000F00027150008271500082715000827150008F0
:1001000027150008271500082715000827150008DF
:1001100027150008271500082715000827150008CF
:1001200027150008271500082715000827150008BF
:1001300027150008610F000827150008271500087B
:10014000271500082715000827150008271500089F
:10015000271500082715000827150008271500088F
:10016000271500082715000827150008271500087F
:10017000271500082715000827150008271500086F
:10018000271500082715000800F002F800F07EF897
:100190000AA090E8000C82448344AAF10107DA45E2
:1001A00001D100F073F8AFF2090EBAE80F0013F0B6
:1001B000010F18BFFB1A43F001031847BC8B010065
:1001C000DC8B01000A444FF0000C10F8013B13F0E7
:1001D000070408BF10F8014B1D1108BF10F8015BA0
:1001E000641E05D010F8016B641E01F8016BF9D193
:1001F00013F0080F1EBF10F8014BAD1C0C1B09D1EA
:100200006D1E58BF01F801CBFAD505E014F8016B5B
:1002100001F8016B6D1EF9D59142D6D370470000ED
:100220000023002400250026103A28BF78C1FBD8FF
:10023000520728BF30C148BF0B607047662918F0CD
:10024000B382642916F0DA87752916F0D7877829E2
:1002500017F01080632917F0DE84732917F0E38408
:10026000002070471FB518F09AFA17F043FA0400FF
:100270000020002118F0F0F9401C606000200021EF
:1002800018F000FAE0601FBD10B510BD17F0DEFDDC
:100290001146FFF7E7FF00F031F917F0FCFD03B45A
:1002A000FFF7F2FF03BC04F0D7FB000010B58AB0E3
:1002B0000446022C35D1BE48407BBD49097BCDE9BF
:1002C0000010BB48C37A827ABAA102A816F030FFA8
:1002D00002A816F021FFB648407DB549097DCDE959
:1002E0000010B348C37C827CB8A102A816F020FF9E
:1002F00002A816F011FFAE48407CAD49097CCDE95B
:100300000010AB48C37B827BB6A102A816F010FF99
:1003100002A816F001FF41F69871B8A016F0FCFE95
:1003200034E0A348407BA249097BCDE90010A048F6
:10033000C37A827AB4A102A816F0FAFE02A816F0D7
:10034000EBFE9B48407D9A49097DCDE90010984815
:10035000C37C827CB2A102A816F0EAFE02A816F0C5
:10036000DBFE9348407C9249097CCDE9001090481F
:10037000C37B827B9BA102A816F0DAFE02A816F0CE
:10038000CBFE41F698719DA016F0C6FE0AB010BDD6
:100390000CE00020FFF78AFFFF2015F069FF4FF403
:1003A000FA7300221146104616F05CF8F1E70025BA
:1003B0006EE0002D43D1002404E09F49085D01F068
:1003C0000FF8641C0E2CF8D3002001F009F87328F4
:1003D00035D1002001F004F8532830D1002000F07E
:1003E000FFFF4E282BD116F00FFD06464FF4877104
:1003F0009248006817F0F0F8002473222046641C2D
:100400008E4909680A5453222046641C8B490968A6
:100410000A544E222046641C884909680A5407E0A1
:10042000002000F0DDFF2146641C844A126850540D
:10043000B4F5877FF4D30125304616F0E9FC05B307
:100440007F48007800F08000D8B9002516F0DCFC69
:1004500006464FF4FA617B4817F0BEF8774801680A
:10046000784800F069FA0446214677A016F054FE59
:100470007348007840F0800071490870304616F0EB
:10048000C7FC4FF4FA7300221146104615F0EAFF3C
:100490008FE70EE07148006808B9012000E00020F5
:1004A0006E4908604FF4FA7300221146104615F0A9
:1004B000D9FFEFE770B5044600BF13F0F5FF16F063
:1004C000A3FC05460923664A0021AFF2390015F066
:1004D0004FFC0823634A0021AFF22D1015F048FCB1
:1004E0000A23614A0021AFF2571015F041FCFF20AA
:1004F00015F0BEFE284616F08BFC70BD10B5A82086
:1005000004F030FA4FF4A06001F020F84FF4E1302D
:1005100004F0AFFA554841685420884700F0CCFBFE
:1005200000F080FF00F00AFE002016F0E8FC012039
:1005300016F0E5FC022016F0E2FC4FF48771002073
:1005400016F0A3FD3D49086049A016F0E5FD4FA057
:1005500016F0E2FD52A016F0DFFD13F067FE06E094
:1005600054A016F0D9FD4FF47A7004F04CFA05F05F
:100570004BFC0028F4D154A016F0CEFD06E058A0A4
:1005800016F0CAFD4FF47A7004F03DFA05F019FE3A
:100590000028F4D158A016F0BFFD0B235C4A0021BF
:1005A000AFF2EF0015F0E4FB13F066FF002010BD82
:1005B000FC0A002044484350204950203A25642E2C
:1005C00025642E25642E25640D0A000044484350FE
:1005D000204757203A25642E25642E25642E256455
:1005E0000D0A00004E4554204D41534B3A25642ED0
:1005F00025642E25642E25640D0A0000506F727448
:100600003A253464210D0A005374617469632049EA
:10061000503A25642E25642E25642E25640D0A008B
:100620005374617469632047573A25642E25642EFC
:1006300025642E25640D0A0018000020000000200B
:10064000AC01002014130020537472696E67206C93
:10065000656E3A2025640D0A00000000A482424223
:10066000240600202405002024080020B0000020DB
:1006700054435020536572766572204E4554434F63
:100680004E4E20546573740D0A0000004B455930DE
:100690003A53656E6420646174610D0A00000000C5
:1006A000646174653A20323031372F31322F30395E
:1006B0000D0A00004C77697020496E6974206661EC
:1006C000696C6564210D0A004C77697020496E6978
:1006D000742053756363657373210D0A0000000075
:1006E00054435020536572766572206661696C656B
:1006F00064210D0A000000005443502053657276B7
:1007000065722053756363657373210D0A000000E1
:10071000240A0020704700BFFEE700BFFEE700BFCD
:10072000FEE700BFFEE770470CB500200190009087
:100730007648006840F480307449086000BF734810
:10074000006800F4003000900198401C019000986F
:1007500018B90198B0F5A04FF1D16C48006800F4C9
:10076000003010B10120009001E0002000900098BE
:10077000012846D165484030006840F08050634908
:10078000403108606248006840F4404060490860B9
:100790005E48083000685D49083108600846006816
:1007A00040F4004008600846006840F4A05008602B
:1007B0005848091F0860081F006840F08070091F32
:1007C000086000BF5148006800F000700028F9D0B0
:1007D00040F20570504908604C480830006820F02D
:1007E00003004A49083108600846006840F00200EA
:1007F000086000BF45480830006800F00C00082879
:10080000F8D10CBD10B54548006840F4700043496C
:1008100008603E48006840F001003C490860002044
:100820003A4908310860394800683D49084037496D
:1008300008603C48091D0860081F006820F48020FB
:10084000091F0860002031490C310860FFF76CFF78
:100850004FF0006031498039086010BD70B500204C
:100860000022022300240221284D08352D6805F0BE
:100870000C0020B1042806D0082834D107E02A4D06
:100880002A4E356033E02A4D284E35602FE01F4D4B
:100890002D1D2D68C5F380541C4D2D1D2D6805F0B0
:1008A0003F0154B1224DB5FBF1F5184E361D3668A7
:1008B000C6F3881605FB06F209E01B4DB5FBF1F502
:1008C000124E361D3668C6F3881605FB06F20F4D2C
:1008D0002D1D2D68C5F301456D1C6B00B2FBF3F5B2
:1008E000124E356003E0104D104E356000BF00BF62
:1008F000064D08352D68C5F303150E4E705D0B4D82
:100900002D68C540094E356070BD000000380240BA
:100910000070004008544007003C024088ED00E0B1
:10092000FFFFF6FE103000240024F4000400002035
:1009300000127A0008000020F0B52DED028B83B084
:1009400006460D4600240C356A8830195FA116F062
:10095000EFFB0444AA88301962A116F0E9FB0444B5
:10096000D5F80620301964A116F0E2FB04446A8928
:10097000301966A116F0DCFB0444AA89301968A17D
:1009800016F0D6FB0444EA8930196BA116F0D0FBAF
:10099000044430196DA12A6916F0CAFB04443019C9
:1009A00071A16A6916F0C4FB04442A8B301975A141
:1009B00016F0BEFB04446A8B301977A116F0B8FB21
:1009C00004442A7F301979A116F0B2FB0444D5F80B
:1009D0001F20301979A116F0ABFB0444D5F8232071
:1009E00030197DA116F0A4FB0444B5F82920301974
:1009F00080A116F09DFB044495F82F0095F82E1069
:100A000028356A79CDE9002102902B79EA783019EE
:100A100080A116F08DFB044495ED020A10EE101A29
:100A2000084617F04BFE41EC180B301953EC182B0D
:100A30007CA116F07DFB044495ED030A10EE101A1C
:100A4000084617F03BFE41EC180B301953EC182BFD
:100A50007AA116F06DFB044430197EA12A6916F0C4
:100A600067FB0444AA8A301980A116F061FB044494
:100A7000EA8A343D301984A116F05AFB0444301937
:100A800087A116F055FB0444002716E05A2F09D120
:100A90004C2101EB47016A5A301910A116F048FBAE
:100AA000044408E04C2101EB47016A5A301980A147
:100AB00016F03EFB0444781C87B25B2FE6DB304621
:100AC00016F0F4FC03B0BDEC028BF0BD76657273DA
:100AD000696F6E206E756D6265723A2025640A0D2D
:100AE00000000000646576696365206E756D62655F
:100AF000723A2025640A0D0073657269616C206E7C
:100B0000756D6265723A2025640A0D006465766928
:100B10006365207374617475733A2025640A0D004F
:100B200074656C656772616D20636F756E74657254
:100B30003A2025640A0D00007363616E20636F75AF
:100B40006E7465723A2025640A0D000074696D6543
:100B50002073696E636520737461727475703A20D6
:100B600025640A0D0000000074696D65206F662021
:100B70007472616E736D697373696F6E3A20256468
:100B80000A0D0000696E707574207374617475735A
:100B90003A2025640A0D00006F7574707574207317
:100BA00074617475733A2025640A0D006368656387
:100BB0006B73756D3A2025640A0D00007363616ED6
:100BC0006E696E67206672657175656E63793A202D
:100BD00025640A0D000000006D6561737572656D16
:100BE000656E74206672657175656E63793A20254D
:100BF000640A0D006E756D626572206F6620313675
:100C000020626974206368616E6E656C733A20259A
:100C1000640A0D00256325632563256325630A0D9A
:100C2000000000007363616C696E67206661637425
:100C30006F723A2025660A0D000000007363616C34
:100C4000696E67206F66667365743A2025660A0DC3
:100C5000000000007374617274696E6720616E67D2
:100C60006C653A2025640A0D00000000616E67750E
:100C70006C617220737465702077696474683A20BF
:100C800025640A0D000000006E756D626572206FAC
:100C90006620646174613A2025640A0D000000003A
:100CA00064617461206C6973743A0A0D000000007D
:100CB00025642020000000001CB50121202000F048
:100CC000D9FF4FF4C060009001208DF8040000208F
:100CD0008DF806008DF8070003208DF805006946A1
:100CE000144800F029FD4FF4C061124800F0A0FD47
:100CF0001CBD60B911B1012908D103E001220E4BDE
:100D00001A6003E000220C4B1A6000BF10E00128BB
:100D10000ED111B101290AD104E00122064B1B1D9D
:100D20001A6004E00022044B1B1D1A6000BF00BFC4
:100D30007047000000140240A48242427FB504467E
:100D40000D460121022000F0DEFFADF80450002026
:100D5000ADF806000294ADF80C0001A9124801F0AC
:100D6000D4F901221146104801F070FE01210E480D
:100D700001F054FA1D208DF8000001208DF80100CB
:100D800003208DF8020001208DF80300684600F072
:100D9000E2FB7FBD10B50121034801F06EFE012189
:100DA000014801F07BFE10BD0004004010B5B0B05A
:100DB00001214FF0606000F05DFF02F083F902F066
:100DC000FEFE00BF02F002FF0128FBD001A802F0E6
:100DD00084F901200190002008904FF400700B90DE
:100DE00000200C900F901290149015901690219066
:100DF0004FF0007022900011249000202690279040
:100E000004202990C0052A9040122B9080012C903C
:100E100040122D9040002F90002101A802F017FAF7
:100E2000C4B2012C03D10121B64802F0E6FE2046EF
:100E300030B010BD08B53D208DF8000000208DF8C1
:100E400001008DF8020001208DF80300684600F0D3
:100E500082FB08BD1CB5002401214D2000F00AFFD3
:100E60000121880300F060FF012001F089F886204D
:100E7000009003208DF8050002208DF8040000206A
:100E80008DF806008DF8070069469F4800F054FC75
:100E90000B2201219C4800F0DAFC0B2202219A4827
:100EA00000F0D5FC0B220721974800F0D0FC32203F
:100EB00000906946954800F03FFC0B2201219348C1
:100EC00000F0C5FC0B220421904800F0C0FC0B226E
:100ED00005218E4800F0BBFC4FF4D04000906946DD
:100EE0008B4800F029FC0B221146894800F0AFFC2A
:100EF0000B220D21864800F0AAFC0B220E2184480B
:100F000000F0A5FC0820009003208DF805000120CA
:100F10008DF8040000208DF806008DF80700694662
:100F20007C4800F009FC00207B490860322003F077
:100F30006AFD01207949C1F88C02FFF77BFFFFF7BA
:100F400035FF04460CB901201CBD0020FCE710B59C
:100F50001F21002002F04AF9C0F38204204610BD90
:100F600010B501E004F0D6FE6D48006802F003FE03
:100F70000028F7D1402002F057FE4FF4803002F0F5
:100F800053FE10BD1EB50021002200920192029274
:100F9000634A1268126802F0004282B10022009295
:100FA000604A526902F0800222B180225D4B5A6190
:100FB00000229A609DE81C0080E81C001EBD584A73
:100FC0001268126802F40042B2B9554A12681268F7
:100FD00002F4807282B1524A1268126802F40072FE
:100FE00052B14F4A12681268C2F30D42111F4C4AA7
:100FF00012689268019200E000210091484A12684C
:101000000292474A1268D268454B1A609DE81C005C
:1010100080E81C0000BFD1E7014643480068006833
:1010200000F0004008B100207047C1F30C003E4AB8
:10103000126850603C480068006840F040503A4AEE
:101040001268106038480068006840F00040364A76
:10105000126810603348406900F0040020B1042099
:10106000304A5061002050602F480068C0682E4A06
:1010700010600120D8E72C4800688068704710B5E0
:101080002A480168002015F0F0FF29480168002077
:1010900015F0EBFF27480168002015F0E6FF264811
:1010A0000168002015F0E1FF10BD10B5A02100205F
:1010B00015F0EBFF1D490860A021002015F0E5FFA9
:1010C0001B49086041F6C451002015F0DEFF1949A4
:1010D000086041F6C451002015F0D7FF164908609A
:1010E0001248006840B11248006828B111480068F1
:1010F00010B10846006818B9FFF7C1FF012010BD04
:101100000020FCE74000010000000240000802400F
:1011100000180240000C02408C8241420080414293
:101120004C000020009002404800002028000020D1
:101130002C000020300000203400002000B599B0C1
:101140000121782000F096FD4FF6337017900220B1
:101150008DF8600003208DF8610000208DF862009A
:1011600001208DF8630017A9994800F0E5FA4FF6C1
:101170008370179017A9974800F0DEFA4FF23F00EE
:10118000179017A9944800F0D7FA40F23F40179003
:1011900017A9924800F0D0FA0C2200218C4800F0E8
:1011A00056FB0C2201218A4800F051FB0C2204213D
:1011B000874800F04CFB0C220521854800F047FBD6
:1011C0000C220821824800F042FB0C2209218048B1
:1011D00000F03DFB0C220A217D4800F038FB0C2278
:1011E0000B217B4800F033FB0C221146784800F0BD
:1011F0002EFB0C220D21764800F029FB0C220E213B
:10120000734800F024FB0C220F21714800F01FFBF3
:101210000C2200216F4800F01AFB0C2201216D48BE
:1012200000F015FB0C2207216A4800F010FB0C228D
:101230000821684800F00BFB0C220921654800F0EA
:1012400006FB0C220A21634800F001FB0C220B2153
:10125000604800F0FCFA0C2211465E4800F0F7FAF4
:101260000C220D215B4800F0F2FA0C220E215948A5
:1012700000F0EDFA0C220F21564800F0E8FA0C229B
:101280000021554800F0E3FA0C220121524800F0F9
:10129000DEFA0C220221504800F0D9FA0C22032178
:1012A0004D4800F0D4FA0C2204214B4800F0CFFA4C
:1012B0000C220521484800F0CAFA0C221146464883
:1012C00000F0C5FA0C220D21434800F0C0FA0C22B0
:1012D0000E21414800F0BBFA0C220F213E4800F0DD
:1012E000B6FA0C2200213D4800F0B1FA0C2201218F
:1012F0003A4800F0ACFA0C220221384800F0A7FA74
:101300000C220321354800F0A2FA0C2204213348B4
:1013100000F09DFA0C220521304800F098FA0C22CA
:101320000A212E4800F093FA002001900290092033
:1013300003900020049005900690079004200890E8
:10134000002009900A9010200B9000200C900D9026
:101350000E900F9010904FF480501190002012903A
:101360001390149001A81590169008A802F0D7FDCC
:101370000121042002F05EFE19B000BD10B506E0A8
:1013800004784FF0D0435C54491C401C521E002A84
:10139000F6D110BD06E04FF0D0435B5C00F8013B96
:1013A000491C521E002AF6D1704713B5044601228B
:1013B000214601A8FFF7E2FF1CBD18B50446012233
:1013C00021466846FFF7E6FF9DF8000018BD0000C3
:1013D000000C0240001002400014024000180240BD
:1013E00070B50446002500BF0221464803F070FA9C
:1013F0000028F9D02146434803F021FA07E02846A7
:101400006D1C42F21071884201DDFF2070BD012188
:101410003C4803F05DFA0028F1D03A4803F00CFA9A
:10142000C0B2F3E700B587B00121022000F022FC32
:101430000121880300F067FC4FF460400590022012
:101440008DF8180000208DF81A0003208DF819007F
:1014500001208DF81B0005A92B4800F06DF905222D
:101460000D21294800F0F3F905220E21264800F04D
:10147000EEF905220F21244800F0E9F90121880343
:1014800000F096FC00214FF4804000F091FC002019
:10149000ADF800004FF48270ADF802000020ADF806
:1014A0000400ADF806000120ADF808004002ADF8D8
:1014B0000A003820ADF80C000020ADF80E0007201F
:1014C000ADF8100069460F4803F03EF801210D48C1
:1014D00003F034F9FF20FFF783FF07B000BD10B51C
:1014E0000446084800884FF6C7710840054908803F
:1014F00008460088204308800121024803F01EF9B5
:1015000010BD000000380040000402400948804738
:1015100009480047FEE7FEE7FEE7FEE7FEE7FEE7D5
:10152000FEE7FEE7FEE7FEE704480549054A064BED
:1015300070470000050800088901000858DA0120FA
:1015400058E0012058DC012058DC012032490143D9
:10155000324A1160704770B5002100230F22C47811
:101560001CB32E4C246804F4E064C4F5E064C4F3B6
:101570000721C1F10404E3B20A4144789C40E1B27E
:101580008478144021430C07210E254C05786155C1
:10159000047804F01F050124AC4005786D11AD00FE
:1015A00005F1E025C5F8004109E0047804F01F05C5
:1015B0000124AC401B4D0678761145F8264070BDDD
:1015C000194A0A400243154B1B1F1A60704739B174
:1015D000124A121D12680243104B1B1D1A6006E0CE
:1015E0000E4A121D126882430C4B1B1D1A60704775
:1015F000042808D14FF0E021096941F004014FF0BF
:10160000E022116107E04FF0E021096921F00401B7
:101610004FF0E022116170470000FA050CED00E088
:1016200000E400E080E100E080FFFF1F10B5044609
:101630009848844208D10121084600F086FB002129
:10164000012000F082FB76E09348844208D101211A
:10165000022000F07AFB0021022000F076FB6AE015
:101660008E48844208D10121042000F06EFB002145
:10167000042000F06AFB5EE08948844208D1012121
:10168000082000F062FB0021082000F05EFB52E021
:101690008448844208D10121102000F056FB00212B
:1016A000102000F052FB46E07F48844208D101211F
:1016B000202000F04AFB0021202000F046FB3AE009
:1016C0007A48844208D10121402000F03EFB0021ED
:1016D000402000F03AFB2EE07548844208D10121F9
:1016E000802000F032FB0021802000F02EFB22E061
:1016F0007048844208D10121801500F026FB0021AA
:10170000A01500F022FB16E06B48844208D10121AD
:10171000401500F01AFB0021601500F016FB0AE0EE
:101720006648844207D10121001500F00EFB00211C
:10173000201500F00AFB10BDF0B50A460021002379
:10174000002400BF3DE0012505FA01F3156805EA14
:1017500003049C4234D105684F000326BE40B543C4
:10176000056015794E00B54006683543056015796A
:10177000012D02D01579022D16D185684F00032660
:10178000BE40B543856055794E00B5408668354307
:101790008560456801268E40B54345604568967969
:1017A0008E40B6B235434560C5684F000326BE4043
:1017B000B543C560D5794E00B540C6683543C560B0
:1017C000491C1029BFD3F0BD4FF6FF710160002105
:1017D000017141718171C171704708B54FF4803258
:1017E0000092009A0A430092009AC261C161009A75
:1017F000C261C2690092C269009208BD024600201F
:1018000013690B400BB1012000E000207047014636
:10181000086980B270470246002053690B400BB143
:10182000012000E0002070470146486980B27047FF
:1018300001837047418370470AB1018300E041830F
:1018400070474161704742694A4042617047F0B554
:10185000002300244D07ED0E02FA05F3CE1000F12F
:10186000200555F826504E07F70E0F26BE40B5430B
:10187000CF1000F1200646F82750CE1000F12005C9
:1018800055F8265045EA0304CE1000F1200545F82E
:101890002640F0BD00000240000402400008024063
:1018A000000C0240001002400014024000180240E8
:1018B000001C024000200240002402400028024098
:1018C000F948006840F00100F74908600020F64937
:1018D00008310860F4480068F4490840F24908609B
:1018E000F348091D0860F348EF4984310860F04867
:1018F0001038091D0860EC48006820F48020EA498F
:1019000008600020E8490C310860E7498C31086024
:1019100070470021E44A921C11701146087070470C
:1019200010B501460022002300204A11012A02D1ED
:10193000DD4C236808E0022A03D1DB4C70342368B5
:1019400002E0D94C7434236801F01F020124944052
:101950001C400CB1012000E0002010BD38B5002073
:1019600000900024002500BF3120FFF7D9FF054675
:101970000098401C00900098B0F5A04F01D0002DB9
:10198000F2D03120FFF7CCFF08B1012400E00024A1
:10199000204638BD01460020C34A106820F0F800F8
:1019A00040EAC10010607047C349086070470021D9
:1019B000BD4A703211701170012802D004280AD17A
:1019C00004E00121B84A7032117005E00521B64AE1
:1019D0007032117000E000BF00BF7047B749086067
:1019E000704770B5049C41EA82150126C6EB530688
:1019F00045EA0645054345EA0465AB4E361D3560AC
:101A000070BDAD4908667047820142EA0172A64B7B
:101A100084331A607047A8498866704710B58301FF
:101A200043EA016343EA02739F4C8834236010BD8C
:101A3000A14908677047A049C86470470246002062
:101A4000994B0833186820F0EC6042EA0103184310
:101A5000954B08331860704702460020924B0833BC
:101A6000186820F0784042EA010318438E4B08338F
:101A700018607047014600208B4A0832106820F039
:101A8000030008431060704787480830006800F082
:101A90000C00704701460020834A0832106820F08D
:101AA000F000084310607047014600207E4A08326B
:101AB000106820F4E0500843106070470146002091
:101AC000794A0832106820F4604040EAC100106092
:101AD0007047F0B5002100220024022500260223D1
:101AE000714F08373F6807F00C0121B1042905D078
:101AF000082937D105E0724F076036E0714F076063
:101B000033E0694F3F1D3F68C7F38056664F3F1D66
:101B10003F6807F03F036EB16A4FB7FBF3F7DFF89A
:101B200088C10CF1040CDCF800C0CCF3881C07FB66
:101B30000CF40CE0624FB7FBF3F7DFF86CC10CF16B
:101B4000040CDCF800C0CCF3881C07FB0CF4564FE7
:101B50003F1D3F68C7F301477F1C7D00B4FBF5F7CD
:101B6000076002E0564F076000BF00BF4E4F0837C6
:101B70003F6807F0F0010909534F7A5C0768D740C6
:101B80004760494F08373F6807F4E051890A4E4FD4
:101B90007A5C4768D7408760434F08373F6807F44F
:101BA0006041490B484F7A5C4768D740C760F0BD39
:101BB000002100F44072B2F5407F0AD13A4A08325F
:101BC000116821F4F811414A02401143364A0832A3
:101BD0001160354A70321268C0F30B031A43324B5E
:101BE00070331A607047354944390860704733498B
:101BF0004039086070473649086070470146002048
:101C0000294A8C32106820F01F004A1E1043264AD1
:101C10008C321060704701460020234A8C321068D5
:101C200020F4F8504A1E40EA02201F4A8C3210600D
:101C30007047014600201C4A8C32106820F4401086
:101C400008431060704701460020174A8C32106824
:101C500020F4400008431060704701460020124AFB
:101C60008C32106820F440300843106070471949E6
:101C70000860704739B10C4A3032126802430A4B8F
:101C800030331A6006E0084A303212688243064B4D
:101C900030331A607047F9B1034A34321268024394
:101CA000014B34331A601CE000380240FFFFF6EAB3
:101CB000103000240030002000004742800E4742D0
:101CC0000024F40000127A0038000020FFFCFF0F0F
:101CD0005C014742E01147428F4A126882438E4BB3
:101CE0001A60704739B18C4A121D126802438A4B40
:101CF0001B1D1A6006E0884A121D12688243864B3B
:101D00001B1D1A60704739B1834A0C3212680243B6
:101D1000814B0C331A6006E07F4A0C321268824312
:101D20007D4B0C331A60704739B17B4A1032126810
:101D30000243794B10331A6006E0774A103212687A
:101D40008243754B10331A60704739B1724A243A96
:101D500012680243704B243B1A6006E06E4A243A34
:101D6000126882436C4B243B1A60704739B16A4A4F
:101D7000203A12680243684B203B1A6006E0664A2C
:101D8000203A12688243644B203B1A60704739B195
:101D9000614A1C3A126802435F4B1C3B1A6006E022
:101DA0005D4A1C3A126882435B4B1C3B1A607047C9
:101DB00039B1594A143A12680243574B143B1A601E
:101DC00006E0554A143A12688243534B143B1A609A
:101DD000704739B1504A103A126802434E4B103BDB
:101DE0001A6006E04C4A103A126882434A4B103B94
:101DF0001A60704739B1484A1C3212680243464B98
:101E00001C331A6006E0444A1C3212688243424B7B
:101E10001C331A60704739B13F4A203212680243BE
:101E20003D4B20331A6006E03B4A20321268824361
:101E3000394B20331A60704739B1374A243212685F
:101E40000243354B24331A6006E0334A24321268C9
:101E50008243314B24331A60704739B12E4A2C32F9
:101E6000126802432C4B2C331A6006E02A4A2C32AB
:101E700012688243284B2C331A60704739B1264AC6
:101E8000303212680243244B30331A6006E0224A93
:101E9000303212688243204B30331A607047012879
:101EA00008D11D493C31096841F008011A4A3C3209
:101EB000116007E018493C31096821F00801164A11
:101EC0003C321160704739B1134A273A1278024305
:101ED000114B273B1A7006E00F4A273A12788243CB
:101EE0000D4B273B1A7070470B484030006840F09C
:101EF0008070094940310860704701460020064A59
:101F0000283A12680A400AB1012000E00020704718
:101F100001492639087070473438024010B5012154
:101F20008803FFF756FF00214FF48040FFF751FF71
:101F300010BD1C49086070471B490862704730B5E6
:101F400000228B071C0F0F2303FA04F2154B0833F2
:101F50008C1053F824309343124C08348D1044F8FD
:101F6000253023468C1053F824308C07240F00FAB8
:101F700004F423430B4C08348D1044F8253030BD55
:101F80000949DC3108607047084908607047002043
:101F900004492031096801F4807109B1012000E091
:101FA000002070470038014000002742000427420B
:101FB00010B50446FE48844208D101210846FFF7C7
:101FC00008FF00210120FFF704FF9DE0B4F1804FDE
:101FD00008D101210846FFF7EBFE00210120FFF7A1
:101FE000E7FE91E0F348844208D101210220FFF787
:101FF000DFFE00210220FFF7DBFE85E0EE48844291
:1020000008D101210420FFF7D3FE00210420FFF7AF
:10201000CFFE79E0E948844208D101210820FFF78A
:10202000C7FE00210820FFF7C3FE6DE0E4488442AC
:1020300008D101211020FFF7BBFE00211020FFF77F
:10204000B7FE61E0DF48844208D101212020FFF77C
:10205000AFFE00212020FFF7ABFE55E0DA488442B6
:1020600008D101210220FFF7B4FE00210220FFF772
:10207000B0FE49E0D548844209D101210804FFF7A8
:10208000A8FE00214FF48030FFF7A3FE3CE0D048CB
:10209000844209D101214804FFF79BFE00214FF43F
:1020A0000030FFF796FE2FE0CA48844209D1012193
:1020B0008804FFF78EFE00214FF48020FFF789FE91
:1020C00022E0C548844208D101214020FFF770FE7C
:1020D00000214020FFF76CFE16E0C048844208D182
:1020E00001218020FFF764FE00218020FFF760FEC1
:1020F0000AE0BB48844207D101218015FFF758FE52
:102100000021A015FFF754FE10BD00220288A84B45
:1021100098420ED0AC4B98420BD0B0F1804F08D013
:10212000A44B984205D0A44B984202D0A34B9842AE
:1021300004D14FF68F731A404B881A43A04B984234
:1021400007D0A04B984204D04FF6FF431A400B89AA
:102150001A4302804B68C3620B880385944B9842F4
:1021600002D0994B984201D18B7A03860123838256
:1021700070474FF0FF3141600021018001814180B3
:10218000817270470185828270470A46002101886A
:102190004FF68F73194011430180704741627047B9
:1021A000C16270470146486A70470146088D704712
:1021B00021B1028842F00202028004E002884FF658
:1021C000FD731A400280704721B1028842F0040278
:1021D000028004E002884FF6FB731A4002807047C9
:1021E00021B1028842F08002028004E002884FF6AA
:1021F0007F731A400280704702884FF6F7731A40C7
:10220000028002880A430280704702884FF6FF432B
:102210001A40028002880A430280704721B1028876
:1022200042F00102028004E002884FF6FE731A4079
:102230000280704770B5002400220023058C4FF601
:10224000FE7635400584028C8388048B4FF68F75AB
:102250002C40B51E2C400D882C43751E2A408D89BC
:102260002A434D882A43524DA84202D0564DA842D7
:1022700013D14FF6F7752A40CD892A434FF6FB75E7
:102280002A408D882A434FF6FF652B404FF6FF55B5
:102290002B400D8A2B434D8A2B43838004838D680A
:1022A0004563028470BD70B5002400220023058CB4
:1022B0004FF6EF7635400584028C8388048B48F610
:1022C000FF752C404FF6FF452C400D884FF6FF76EA
:1022D00006EA05252C434FF6DF752A408D8906EA6C
:1022E00005152A434D8806EA05152A43304DA842B4
:1022F00002D0354DA8421DD14FF67F752A40CD89B9
:102300004FF6FF7606EA05152A434FF6BF752A40B9
:102310008D8806EA05152A434FF6FF352B404FF20C
:10232000FF752B400D8A06EA85052B434D8A06EA88
:1023300085052B43838004838D688563028470BD8B
:1023400070B5002400220023058C4FF6FF6635404F
:102350000584028C8388848B4FF68F752C404FF652
:10236000FC752C400D882C434FF6FF552A408D8973
:102370004FF6FF7606EA05252A434D8806EA05252D
:102380002A430B4DA84202D00F4DA84238D14FF23C
:10239000FF752A40CD894FF6FF7606EA05252A43C8
:1023A0004FF6FF352A408D8806EA05252A4319E0B5
:1023B000000001400004004000080040000C004004
:1023C00000100040001400400004014000400140A3
:1023D000004401400048014000180040001C00403B
:1023E000002000404EF6FF752B404DF6FF752B4048
:1023F0000D8A06EA05152B434D8A06EA05152B437F
:10240000838084838D68C563028470BD70B50022AB
:1024100000230024058C4EF6FF7635400584038C9E
:102420008488828B48F6FF752A404FF6FF452A4084
:102430000D884FF6FF7606EA05252A434DF6FF750F
:102440002B408D8906EA05352B434D8806EA053574
:102450002B43FE4DA84202D0FD4DA84208D14BF6B9
:10246000FF752C400D8A4FF6FF7606EA85152C4342
:10247000848082838D680564038470BD002101809F
:102480004180818081608181C18101824182704768
:1024900070B50346002000241846183001258D40F1
:1024A000ACB21D8CA5431D8409B108290AD100EBEB
:1024B000610005684FF68F76354005600568154365
:1024C00005600FE00D1FC5F34E052844056848F66A
:1024D000FF763540056005684FF6FF7606EA02266E
:1024E0003543056070BD4163704781637047C163C8
:1024F0007047016470470A460021018B4FF68F73C5
:1025000019401143018370470A460021018B48F6A8
:10251000FF7319404FF6FF7303EA02231943018347
:1025200070470A460021818B4FF68F731940114383
:10253000818370470A460021818B48F6FF7319405A
:102540004FF6FF7303EA02231943818370470A465B
:102550000021018B4FF6F773194011430183704737
:102560000A460021018B4FF2FF7319404FF6FF73AB
:1025700003EA02231943018370470A460021818B35
:102580004FF6F77319401143818370470A460021C3
:10259000818B4FF2FF7319404FF6FF7303EA02235A
:1025A0001943818370470A460021018B4FF6FB7364
:1025B00019401143018370470A460021018B4FF6F1
:1025C000FF3319404FF6FF7303EA022319430183D7
:1025D00070470A460021818B4FF6FB731940114367
:1025E000818370470A460021818B4FF6FF331940E3
:1025F0004FF6FF7303EA02231943818370470A46AB
:102600000021018B4FF67F731940114301837047FE
:102610000A460021018BC1F30E014FF6FF7303EA56
:1026200002231943018370470A460021818B4FF62C
:102630007F7319401143818370470A460021818BC3
:10264000C1F30E014FF6FF7303EA0223194381839E
:1026500070470A460021018C4FF6FD731940114363
:10266000018470470A460021018C4FF6F773194028
:102670001143018470470A460021018C4FF6DF7335
:1026800019404FF6FF7303EA0213194301847047A0
:102690000A460021018C4FF67F7319404FF6FF73F5
:1026A00003EA02131943018470470A460021018C92
:1026B0004FF6FF5319404FF6FF7303EA0223194305
:1026C000018470470A460021018C4FF2FF731940C4
:1026D0004FF6FF7303EA02231943018470470A4649
:1026E0000021018C4DF6FF7319404FF6FF7303EA8A
:1026F000023319430184704730B5002301248C4014
:10270000A3B2048C9C430484048C02FA01F5ADB29C
:102710002C43048430BD30B5002304248C40A3B284
:10272000048C9C430484048C02FA01F5ADB22C4362
:10273000048430BD828B4FF2FF331A408283828B38
:102740004FF6FF7303EA01231A4382837047F0B503
:102750000C461546002100220026078C4EF6FF7C11
:1027600007EA0C070784818B028C4FF6FF7707EA94
:10277000043640F6FF4739404FF6FF7707EA052752
:1027800039434FF6FF7707EA0337394345F6FF77BA
:102790003A4046F480573A4381830284F0BD828BED
:1027A0004FF6F3731A408283828B0A438283704709
:1027B000F0B50C461546002100220026078C4FF686
:1027C000FF6C07EA0C070784818B028C4FF6FF77BA
:1027D00007EA04264FF60C7739404FF6FF7707EAF1
:1027E00003172F4339434FF2FF573A4046F480779F
:1027F0003A4381830284F0BD028B4FF2FF331A40CB
:102800000283028B4FF6FF7303EA01231A4302830C
:102810007047F0B50C461546002100220026078CB3
:102820004FF6EF7C07EA0C070784018B028C4FF60A
:10283000FF7707EA041640F6FF4739404FF6FF7767
:1028400007EA033739434FF6FF7703E00000014002
:102850000004014007EA052739434FF65F773A4005
:1028600046F010073A4301830284F0BD028B4FF615
:10287000F3731A400283028B0A4302837047F0B558
:102880000C46154600210022068C4FF6FE773E408E
:102890000684018B028C4FF60C7631407E1C06EAD2
:1028A00003162E4331434FF6F576324044F00106CD
:1028B000324301830284F0BD70B505460C46208882
:1028C00050B92389A28861882846FFF7D8FFE1889C
:1028D0002846FFF7CBFF25E0208804280AD123896A
:1028E000A28861882846FFF794FFE1882846FFF711
:1028F00083FF17E0208808280AD12389A2886188ED
:102900002846FFF755FFE1882846FFF748FF09E012
:102910002389A28861882846FFF719FFE1882846A5
:10292000FFF708FF70BD00210180418001218180F7
:102930000021C180018170472DE9F04105460C4618
:1029400000260127608808B9022600E00026A0883A
:10295000012801D1022700E001272088A0B923899E
:10296000A28861882846FFF78AFFE1882846FFF79A
:102970007DFF23893A4631462846FFF74AFFE18822
:102980002846FFF739FF13E02389A288618828468B
:10299000FFF73FFFE1882846FFF72EFF23893A46DD
:1029A00031462846FFF76BFFE1882846FFF75EFFB8
:1029B000BDE8F0810146486B70470146886B70475F
:1029C0000146C86B70470146086C70470A884B88FF
:1029D0001A438B881A43CB881A430B891A434B89B5
:1029E0001A438B891A43A0F84420704700210180C4
:1029F00041808180C180018141818181704731B1F5
:102A0000B0F8442042F40042A0F8442005E0B0F8B9
:102A10004420C2F30E02A0F84420704721B18288FE
:102A200042F00402828004E082884FF6FB731A4071
:102A30008280704721B1828842F00102828004E0E6
:102A400082884FF6FE731A40828070471AB18389DC
:102A50000B43838102E083898B43838170478182AA
:102A6000704702460020138A0B400BB1012000E0A2
:102A700000207047CA430282704730B502460020EA
:102A800000230024158A05EA0103958905EA01045B
:102A900013B10CB1012000E0002030BDCA43028216
:102AA000704741EA0203A0F8483070471AB18389A1
:102AB0000B43838102E083898B438381704721B17B
:102AC000828842F00802828004E082884FF6F77321
:102AD0001A408280704701894FF6F87211400181D7
:102AE00070470A46002101894FF68F731940114340
:102AF0000181704730B504460D4629462046FFF750
:102B0000F0FF208940F00700208130BD2DE9F04121
:102B100004460D4616461F46602D06D13B4601224F
:102B200031462046FFF775FE05E03B46012231465F
:102B30002046FFF7A4FE29462046FFF7D2FF208952
:102B400040F007002081BDE8F08130B50C4600213F
:102B50000189C9B24FF6FF7505EA032515432543E0
:102B60002943018130BD2DE9F04105460E46174647
:102B70009846002443463A4631462846FFF7E5FF8B
:102B80002C894FF6F870044044F007044FF68F701C
:102B9000044044F070042C81BDE8F081F0B5044697
:102BA0000D4616461F463B46324629462046FFF74D
:102BB000CCFF208940F480402081F0BD82884FF610
:102BC0008F731A40828082880A438280704702890C
:102BD0004FF6F8731A40028102890A430281704756
:102BE00002894FF67F731A40028102890A430281EB
:102BF0007047F0B50C4615461E4600210022002302
:102C00000189028B038C4FF6F877394021434FF648
:102C1000FC473A4040F201173A434FF6DD773B401C
:102C20004FF6FF7707EA06172F433B4301810283E4
:102C30000384F0BD21B1828842F08002828004E0EA
:102C400082884FF67F731A4082807047A0F8501038
:102C50007047000010B50446FA48844208D10121AB
:102C60001020FFF7B6F800211020FFF7B2F857E068
:102C7000F548844209D101214804FFF799F8002161
:102C80004FF40030FFF794F84AE0F048844209D14D
:102C900001218804FFF78CF800214FF48020FFF712
:102CA00087F83DE0EA48844209D10121C804FFF7D2
:102CB0007FF800214FF40020FFF77AF830E0E54874
:102CC000844209D101210805FFF772F800214FF471
:102CD0008010FFF76DF823E0DF48844208D101211E
:102CE0002020FFF776F800212020FFF772F817E088
:102CF000DA48844209D101218807FFF759F80021F9
:102D00004FF08040FFF754F80AE0D548844207D1DD
:102D100001214005FFF74CF800216005FFF748F856
:102D200010BD2DE9FF4705460E460024A14600BF11
:102D3000A046B08900B100BF2C8A24F44054F0882A
:102D400004432C82AC8941F20C608443B088318901
:102D50000843718908430443AC81AC8A24F440746D
:102D6000B0890443AC826846FEF7B3FEB54885429D
:102D700002D0B948854202D1DDF80C9001E0DDF8BF
:102D80000890A88900F4004040B109EBC90000EBAD
:102D9000091031684900B0FBF1F707E009EBC90001
:102DA00000EB091031688900B0FBF1F76420B7FB34
:102DB000F0F004012009642101FB1078A88900F4D7
:102DC000004040B1322000EBC800B0FBF1F000F051
:102DD0000700044308E0322000EB08106421B0FB38
:102DE000F1F000F00F0004432C81BDE8FF874FF4A1
:102DF0001651016000218180C18001810C21418137
:102E000000218181704710B502460020108A20F40D
:102E100070600B884C8823438C882343CC882343E1
:102E20001843108210BD0021018041808180C18043
:102E3000704721B1828942F40052828104E0828984
:102E40004DF6FF731A4082817047028B02F47F4275
:102E50000283028B0A430283704721B1828942F4C4
:102E60000042828103E08289C2F30E0282817047B0
:102E700021B1828A42F40062828204E0828A4FF2A7
:102E8000FF731A4082827047C1F308028280704744
:102E900001468888C0F308007047028A4FF6F07335
:102EA0001A400282028A0A430282704721B1828953
:102EB00042F00202828104E082894FF6FD731A40DB
:102EC0008281704782894FF2FF731A408281828922
:102ED0000A4382817047028A4FF6DF731A400282EA
:102EE000028A0A430282704721B1028A42F4804278
:102EF000028204E0028A4BF6FF731A400282704796
:102F0000818941F001018181704721B1828A42F0BB
:102F10000802828204E0828A4FF6F7731A408282A6
:102F20007047028BD2B20283028B42EA01220283F3
:102F3000704721B1828A42F02002828204E0828AB4
:102F40004FF6DF731A408282704721B1828A42F0C5
:102F50001002828204E0828A4FF6EF731A40828266
:102F60007047828A4FF6FB731A408282828A0A4334
:102F70008282704721B1828A42F00202828204E09A
:102F8000828A4FF6FD731A40828270471AB1838A93
:102F90000B43838202E0838A8B4383827047F0B5C0
:102FA0000346002400260025002040F66A17B94297
:102FB00000D100BF1846C1F3421401F01F060127DB
:102FC00007FA06F5012C01D10C3004E0022C01D1E6
:102FD000103000E014301AB107682F43076002E098
:102FE0000768AF430760F0BD02460020B1F5007FDF
:102FF00000D100BF13880B400BB1012000E000207E
:10300000704701F40072B2F5007F00D100BFCA43DF
:103010000280704770B5024600240023002500207E
:1030200040F66A16B14200D100BFC1F3421501F06B
:103030001F03012606FA03F3012D13D196893340AD
:1030400017E000000010014000440040004800402C
:10305000004C004000500040001401400078004047
:10306000007C0040022D02D1168A334001E0968A8E
:1030700033400C12012606FA04F41688344013B1CA
:103080000CB1012000E0002070BD10B5002200232B
:1030900040F66A14A14200D100BF0A1201249440F4
:1030A000A3B2DC43048010BD01B581B000200090C4
:1030B0000198009002E00098401E009000980028BF
:1030C000F9D10CBD10B501214806FEF73EFE0021E6
:1030D0004FF00070FEF739FE10BD012101600021A4
:1030E00041608160C16001614FF480414161002114
:1030F0008161C1614FF4006101620021416281621E
:10310000C162016341638163C16340210164202185
:10311000416400218164C164016541658165C165C7
:1031200001668021416600218166C16601674167B1
:103130008167C1674FF08061C0F880104910C0F806
:1031400084100021C0F888104FF40011C0F88C10D2
:103150000021C0F89010C0F89410C0F89810C0F882
:103160009C10C0F8A0104FF00071C0F8A4104912D4
:10317000C0F8A8108901C0F8AC104912C0F8B0100E
:103180000021C0F8B410C0F8B810704738B5034635
:103190000C46002100200090F648016901F01C0156
:1031A0004FF4784000EAC32001434FF4F86000EA8E
:1031B0008410014341F0020141F00101ED484261F8
:1031C000016100BF0098401C0090EA48016901F0CD
:1031D000010018B1E84D0098A842F3D3E64D0098DD
:1031E000A84201D1002038BD0120FCE718B50246F5
:1031F0000B46002100200090DE48016901F01C010F
:103200004FF4784000EAC22001434FF4F86000EA2E
:103210008310014321F0020141F00101D548016111
:1032200000BF0098401C0090D248016901F00100E5
:1032300018B1D14C0098A042F3D3CF4C0098A042D3
:1032400001D1002018BDCB48406980B2FAE72DE9D2
:10325000F04186B004460F464FF0000800250020DC
:103260000590C64E0090C348056925F01C0501A8CD
:10327000FEF72FFC029EC248864205D3C148864213
:1032800002D245F008051AE0BE48864205D3BB4885
:10329000864202D245F00C0511E0B848864203D3BD
:1032A000B948864200D20AE0B748864205D3B748FB
:1032B000864202D245F0040501E045F01005AD4814
:1032C00005614FF4004200213846FFF75FFF18B94F
:1032D000002006B0BDE8F081AD48FFF7E5FE2068AC
:1032E00000284ED000BF0098401C009001213846B5
:1032F000FFF77CFF00F0040018B99F49009888424E
:10330000F1D39D490098884201D10020E1E70020D7
:1033100000904FF4805200213846FFF737FF08B97C
:103320000020D6E700BF0098401C009001213846DD
:10333000FFF75CFF00F0200018B98F490098884221
:10334000F1D38D490098884201D10020C1E70020C7
:1033500000901F213846FFF749FF804608F0100013
:1033600018B14FF40060206201E00020206208F0F4
:10337000040010B10020606116E04FF480406061ED
:1033800012E0206AC0F3CF006169C1F34F0140EA47
:10339000010200213846FFF7F9FE08B9002098E73E
:1033A0006FF07F40FFF780FE72480568794805405E
:1033B000D4E901010843E1680843216908436169D0
:1033C0000843A1690843E1690843216A0843616A27
:1033D0000843A16A0843E16A0843216B0843616B13
:1033E0000843054363480560D4E90E010843216C96
:1033F0000843616C0843A16C0843E16C0843216DEC
:103400000843616D08435B494860A06D8860E06DCA
:10341000C860084685694FF641700540B4F86010F1
:10342000606E40EA0140A16E0843E16E0843216FDF
:103430000843616F084305434E488561D4E91E0186
:1034400008434C49C8615448856954480540D4E94B
:1034500020010843D4F888100843D4F88C1008439E
:10346000D4F890100843D4F894100843D4F8981076
:103470000843D4F89C100843D4F8A010084305432F
:1034800045488561D4E929010843D4F8AC100843C4
:10349000D4F8B0100843D4F8B41040EA8100D4F84E
:1034A000B810084340F400003B4908600846006833
:1034B00040F08000086001200BE730B1364989698F
:1034C00041F00201344A916105E03349896921F0F4
:1034D0000201314A9161704730B12F49896941F445
:1034E00000512D4A916105E02B49896921F4005171
:1034F000294A9161704730B11E49096841F00401C1
:103500001C4A116005E01B49096821F00401194AB1
:10351000116070472048806940F480101E4988611E
:10352000704730B11349096841F00801114A116030
:1035300005E01049096821F008010E4A1160704742
:1035400000B50120FFF7EDFFFFF7E4FF0120FFF7D3
:10355000D2FF0120FFF7C0FF0120FFF7AEFF00BD43
:1035600000200449896901F0010109B1012000E04E
:103570000020704700800240FFFF04000087930393
:10358000002D3101C00E160200E1F50580D1F008D2
:10359000FFFF0F000F8120FF00900240233FDEF865
:1035A000FB48806940F00100F9498861704730B1FB
:1035B000F749896941F00101F54A916105E0F44953
:1035C000896921F00101F24A9161704701460020AA
:1035D000EF4A926B0A400AB1012000E000207047D8
:1035E00001460020EA4A926B0A400AB1012000E03D
:1035F0000020704729B1E64AD26B8243E44BDA637C
:1036000004E0E34AD26B0243E14BDA63704710B542
:103610000B794C7943EA0422DD4B03441A64CB78DE
:103620001B068C7843EA04434C7843EA04230C7865
:1036300043EA0402D64B03445A6410BD0246D44BFD
:103640001344186C030A4B710871D14B1344586C26
:10365000030ECB70030C8B70030A4B70087070471D
:1036600041B1CB4A0244126C42F00042C84B0344C1
:103670001A6407E0C64A0244126C22F00042C44BAE
:1036800003441A647047082908D0C14A0244126CE6
:1036900042F08042BE4B03441A6407E0BC4A024435
:1036A000126C22F08042BA4B03441A647047B84A45
:1036B0000244126C22F07C52B54B03441A64B44AA3
:1036C0000244126C0A43B24B03441A6470471EB59D
:1036D00000210022009201920292AE4A1268126802
:1036E000C2F30D42111F0091AB4A12689268012A81
:1036F00005D9A94A126812689268019203E0A54AA6
:10370000126892680192A34A12680292A14A126852
:10371000D268A04B1A609DE81C0080E81C001EBD0A
:103720000FB5002101910291039100916FE0009982
:10373000491C009197490968096801F40071A1B119
:1037400094490968096801F4807171B9914909685F
:10375000914A1268116001218F4A126891608D4967
:103760000968C9688B4A116051E08A49096809688B
:1037700001F4807191B987490968096801F4007101
:1037800061B9854909688968491C834A1268916052
:1037900080490968C9687F4A116038E07D49096835
:1037A0007D4A126851607C4909688968491C7A4AD7
:1037B00012689160784909688968012904D17549BE
:1037C0000968754A12681160724909680968C1F38D
:1037D0000D41091F0191704909688968012905D9BE
:1037E0006D49096809688968029103E069490968B7
:1037F0008968029167490968039166490968C9683F
:10380000644A116001A90EC980E80E000FBD61492C
:103810000968096801F0004111B90099052986D3AA
:1038200001A90EC980E80E0000BFEFE770B502469F
:1038300000230025002459480068006800F000407B
:1038400008B1002070BD5548016840F2F450824232
:1038500008DD92FBF0F392FBF0F600FB162010B1AE
:103860005B1C00E00123012B1AD14C480068006862
:1038700040F04050494E36683060C2F30C00474E6D
:103880003668706045480068006840F00040434E6C
:103890003668306041480068C068404E306028E0BB
:1038A000002422E03CB93D480068006840F08050A8
:1038B0003A4E3668306040F2F4504860581EA042DC
:1038C0000DD1086840F000500860581EC0EBC010D1
:1038D00000EB4000A2EB8005C5F30C0048600868CF
:1038E00040F000400860C968641C9C42DAD32B4851
:1038F00001602B48406900F0040020B10420284EEC
:1039000070610020706001209CE770B50C46134682
:103910000021204D286000BF18E000EB41124FF05D
:103920000045156044F2F4555560C1EBC11505EB37
:10393000450504EB850595605D1E8D4204D900EBBD
:1039400041152035D56000E0D060491C9942E4D390
:10395000134DE860134D104E356070BD0D48006882
:10396000006800F00040F8B90A480068006800F4F8
:103970008070C8B107480068074909684860064870
:1039800000688068401C044909688860012070470D
:10399000008002404C000020500000204800002021
:1039A00000900240280A0020F9480068006800F0F2
:1039B0000040F0B9F6480068006800F40070C0B13B
:1039C000F3480068006800F4807090B9F04800681F
:1039D000F049096808600020EE4909684860012044
:1039E000EC4909688860EA480068C068E8490860EE
:1039F0001DE0E7480068006800F00040B8B9E448FE
:103A00000068006800F4007088B9E1480068006848
:103A100000F4807058B9DF4800688068401CDD49B8
:103A200009688860DA480068C068D94908600020E1
:103A3000ADE730B50C4613460021D74D286000BFD6
:103A400015E000EB41124FF480151560C1EBC11574
:103A500005EB450504EB850595605D1E8D4204D997
:103A600000EB41152035D56000E0D060491C99423B
:103A7000E7D3CA4D286130BD0246002013680B40D1
:103A80000BB1012000E00020704701460868C0F338
:103A9000C3007047016841F000410160704721B1E7
:103AA000026842F08042026003E0026822F0804235
:103AB0000260704702680A430260704702680A4366
:103AC0000260704721B1026822F00062026003E0E8
:103AD000026842F000620260704721B1026842F45D
:103AE0008012026003E0026822F4801202607047D4
:103AF00021B1026822F08062026003E0026842F0B5
:103B000080620260704710B541EA02444368234373
:103B1000436010BD0246002013680B400BB101202A
:103B200000E0002070470246002013690B400BB1F3
:103B3000012000E000207047016841F00041016071
:103B4000704701460868C0F30D40704721B14268D4
:103B500022F00042426003E0426842F000424260CC
:103B60007047024619B15068C0F30C407047908806
:103B7000C0F30C00FAE700B502460023106800F01D
:103B8000004058B9106800F4004038B9106800F4DB
:103B9000807018B11046FFF7D4FF0346184600BDE9
:103BA00030B17E49096841F080017C4A116005E02E
:103BB0007A49096821F08001784A11607047774896
:103BC000006840F0010075490860704700207349A3
:103BD000096801F0010109B1012000E000207047EF
:103BE000014600206D4A52690A400AB1012000E0F6
:103BF0000020704769494861704729B1674AD26916
:103C00000243664BDA6104E0644AD2698243634B43
:103C1000DA61704701460020604A52690A400AB1E1
:103C2000012000E0002070475C49486170475B4814
:103C3000406900F0010070475848406900F04000BA
:103C4000704700205549896901F4801109B10120AC
:103C500000E00020704701460020504A126A0A40E6
:103C60000AB1012000E0002070474C48006AC0F310
:103C70004A4070474948006A80B270474748806CA4
:103C800070474648C06C70474448006D70474348D1
:103C9000406D7047002041494860704700203F490F
:103CA000886070473D494862704770B506460D46CA
:103CB000002400213046FFF799FA044615B144F478
:103CC000804402E04BF6FF7004402246002130465B
:103CD000FFF75CFA08B1012070BD0020FCE7304816
:103CE000C06A40F000402E49C8627047014600207B
:103CF00000BF04E051F82020294B9A62401C08289C
:103D0000F8D3704730B12649C96A41F40071244A9A
:103D1000D16205E02249C96A21F40071204AD162CA
:103D20007047014600201E4AD26A0A400AB10120AB
:103D300000E00020704730B11949C96A41F0040120
:103D4000174AD16205E01649C96A21F00401144AF4
:103D5000D162704730B11249C96A41F00201104A7C
:103D6000D16205E00E49C96A21F002010C4AD16214
:103D7000704730B10A49C96A41F00101084AD1626D
:103D800005E00749C96A21F00101054AD16270477F
:103D90004C0000205000002048000020009002400D
:103DA000008002404E48006840F030004D49C1F8A4
:103DB000000170474A48006820F020004949C1F8D6
:103DC00000010846D0F8000140F01000C1F80001E1
:103DD000704738B14249096841F00801414AC2F8C8
:103DE000001106E03E49096821F008013D4AC2F889
:103DF0000011704738B13A49096841F00401394A65
:103E0000C2F8001106E03649096821F00401354A7C
:103E1000C2F80011704738B13149096821F0020138
:103E2000304AC2F8001106E02D49096841F002014C
:103E30002C4AC2F8001170472948006840F0010080
:103E40002849C1F80001704700F0805292B120F07B
:103E5000805039B1224A0C3212688243214BC3F898
:103E60000C2117E01E4A0C32126802431D4BC3F8A6
:103E70000C210FE039B11A4A103212688243194BF3
:103E8000C3F8102106E0164A103212680243154B9F
:103E9000C3F8102170470146002001F080526AB13A
:103EA0000F4A121D12680A4032B10D4A0C321268D4
:103EB0000A400AB901200EE000200CE0084A08324E
:103EC00012680A4032B1064A0C3212680A400AB936
:103ED000012000E000207047014602480858704762
:103EE000008102400080024030B943F2DB028100D1
:103EF000A1F1C0410A6005E043F2D2028100A1F1C4
:103F0000C0410A606FF07042411C8900A1F1C041BC
:103F10000A608100A1F1C041C1F804217047D0E9D5
:103F200001121143C26811430269114342691143EE
:103F300082691143C2691143026A1143426A114303
:103F4000826A1143C26A1143026B114302689200F4
:103F5000A2F1C0421160816808290BD10168890073
:103F6000A1F1C041096841F0400201688900A1F156
:103F7000C0410A60416B0968426B526841EA021114
:103F8000426B926841EA0221426B928941EA024106
:103F9000426B128A41EA0251426B127D41EA026190
:103FA000426B926911430268521C9200A2F1C04216
:103FB0001160C16AB1F5804F1BD1816B0968826BBA
:103FC000526841EA0211826B926841EA0221826BD7
:103FD000128A41EA0251826B127D41EA0261826BD0
:103FE0009269114302689200A2F1C042C2F8041122
:103FF00007E06FF0704201688900A1F1C041C1F88B
:10400000042170470021016002214160002181608C
:10401000C160016141618161C16101624FF4805100
:104020004162490081620021C1620163F849416334
:104030008163704751B18200A2F1C042126842F020
:1040400001038200A2F1C042136009E08200A2F1E4
:10405000C0421268EF4B1A408300A3F1C0431A60BC
:10406000704710280AD118214FF0204211664021D4
:1040700051664FF0FC319166D16610E01821E64A96
:10408000116040214FF02042C2F884104FF0FC3103
:10409000E14A083211604FF02042C2F88C1070479C
:1040A00030B5002100220023446844F008048568EC
:1040B0002C43C5682C4305692C43456944EA4524D3
:1040C000856944EA4531C4692468C5696D6844EA74
:1040D0000524C5692D8944EA0544C5692D7B44EA58
:1040E0000562046A2468056A6D6844EA0524056A65
:1040F0002D8944EA0544056A2D7B44EA056304687A
:10410000102C05D14FF020442166A266E36608E03A
:10411000C14C21604FF02044C4F88820BE4C0C34C0
:10412000236030BD10210160002141608160C160C9
:10413000016141618161FC21C2691160C269516004
:10414000C2699160C269D160026A1160026A5160FD
:10415000026A9160026AD160704799B1102808D153
:104160004FF02042126E42F004024FF020431A66D4
:104170001DE0A94A126842F004024FF02043C3F840
:10418000802014E0102809D14FF02042126EA14B7C
:10419000DB1E1A404FF020431A6608E09E4A126860
:1041A0009C4BDB1E1A404FF02043C3F88020704721
:1041B00099B1102808D14FF02042126E42F040020F
:1041C0004FF020431A661DE0934A126842F0400205
:1041D0004FF02043C3F8802014E0102809D14FF09D
:1041E0002042126E8B4B3F3B1A404FF020431A6621
:1041F00008E0894A1268874B3F3B1A404FF0204342
:10420000C3F88020704701460020102903D14FF0E9
:104210002042506F02E0804A143210687047182024
:104220007D492031086000200906C1F8A4004FF044
:10423000FC30794928310860091D0860091D0860B3
:104240007047016841F01001426841EA42218268EA
:1042500041EA4231704A20321160C1680968C2687F
:10426000526841EA0221C268128941EA0241C268E9
:10427000127B41EA0261684A2832116001690968CB
:104280000269526841EA02210269128941EA024147
:104290000269127B41EA02615F4A2C321160416976
:1042A00009684269526841EA02214269128941EA79
:1042B00002414269127B41EA02614FF02042C2F89A
:1042C000B01070470021016041608160FC21C2682C
:1042D0001160C2685160C2689160C268D1600269B1
:1042E000116002695160026991600269D16042699E
:1042F000116042695160426991604269D1607047C2
:1043000048B145492031096841F004014FF020428D
:10431000C2F8A01009E04049203109683D4AD21E88
:1043200011404FF02042C2F8A010704710B5F2B112
:10433000102807D14FF020435B6E0B434FF0204411
:10434000636632E0B0F5807F08D1334B1B1D1B68DC
:104350000B434FF02044C4F8843026E02E4B243326
:104360001B680B434FF02044C4F8A4301DE0102814
:1043700007D14FF020435B6E8B434FF020446366C0
:1043800013E0B0F5807F08D1234B1B1D1B688B43C6
:104390004FF02044C4F8843007E01F4B24331B68DF
:1043A0008B434FF02044C4F8A43010BD10B5024632
:1043B00000200023102A03D14FF02044636E09E04F
:1043C000B2F5807F03D1144C241D236802E0124C07
:1043D0002434236803EA01040CB1012000E000202A
:1043E00010BD102807D14FF02042526E8A434FF083
:1043F00020435A6619E0B0F5807F0FD1064A121D9E
:1044000012688A434FF02043C3F884200DE0000077
:10441000AC870108FEFF0F00800000A0234A12684D
:104420008A434FF02043C3F8A420704770B502467A
:104430000020002300240025102A03D14FF020463D
:10444000736E08E0B2F5807F03D1184E203E3368CA
:1044500001E0164E336803EA010403EAD10514B102
:104460000DB1012000E0002070BD102808D14FF0F0
:104470002042526E22EAD1024FF020435A6614E0E5
:10448000B0F5807F09D1094A203A126822EAD102A8
:104490004FF02043C3F8842007E0044A126822EA60
:1044A000D1024FF02043C3F8A4207047A40000A01D
:1044B00010B50446FB48844208D101218014FDF761
:1044C00088FC0021A014FDF784FC3CE0F6488442FF
:1044D00008D101210014FDF76BFC00212014FDF729
:1044E00067FC30E0F148844208D10121C013FDF798
:1044F0005FFC0021E013FDF75BFC24E0EC48844204
:1045000008D101214014FDF764FC00216014FDF77F
:1045100060FC18E0E748844209D101210805FDF755
:1045200058FC00214FF48010FDF753FC0BE0E248EB
:10453000844208D101214805FDF74BFC00214FF4CE
:104540000010FDF746FC10BD10B50022028802F4F1
:1045500041520B884C8823438C882343CC882343C7
:104560000C8923434C8923438C892343CC892343DF
:104570001A430280838B4FF2FF74234083830B8A9C
:10458000038210BD2DE9F04F0025022300244FF0D7
:10459000010900220026002794469046B0F81CA08E
:1045A0004FF2400B0AEA0B0AA0F81CA04FF0020AD7
:1045B000A0F820A0858BD1F808A0BAF1020F01D194
:1045C00000BF82E0B1F804A0BAF1000F02D14FF0B1
:1045D000010901E04FF00209DFF8E0A2DAF800A0DB
:1045E0000AF4000ABAF1000F09D0DFF8D0A2DAF815
:1045F00000A02AF4000ADFF8C4B2CBF800A0DFF86C
:10460000BCA20AF17C0ADAF800A0CAF3881CDFF821
:10461000ACA20AF17C0ADAF800A0CAF30278DFF84B
:104620009CA2AAF1040ADAF800A00AF03F07DFF81A
:104630008CA2AAF1040ADAF800A00AF4800ABAF5FA
:10464000800F08D1DFF878A2BAFBF7FA0AFB0CFA60
:10465000BAFBF8F607E0DFF86CA2BAFBF7FA0AFB40
:104660000CFABAFBF8F6B1F806A0BAF5007F0ED145
:104670004FEA162A0AEB8A0A4FEA4A0AD1F808B02A
:10468000BAFBFBFA0AF1050A1FFA8AF20FE04FEAB9
:10469000491AB6FBFAFA0AEB8A0A4FEA4A0AD1F833
:1046A00008B0BAFBFBFA0AF1050A1FFA8AF24FF0CA
:1046B0000A0AB2FBFAF202F00104A2EB040ACAF3FE
:1046C0004F034FF6FF7A0AEA0424022B01DBFF2B8B
:1046D00001DD02230024B1F806A04AEA040A4AEAEE
:1046E000030AA0F820A0B1F804A0B1F80CB04AEA7F
:1046F0000B0AB1F802B04AEA0B0AB1F800B04AEA74
:104700000B0A4AF4006A4AEA05058583BDE8F08F82
:104710000021018041808180C180018141818181AE
:10472000C181072101827047002101804180818081
:10473000C1800221816000218181704721B10288FE
:1047400042F04002028004E002884FF6BF731A4034
:104750000280704721B1828B42F48062828304E040
:10476000828B4FF6FF331A408283704702884FF2E4
:10477000FF731A40028002880A4302807047B1F535
:10478000804F04D1028842F48042028004E0028813
:104790004BF6FF731A40028070474FF6FF6291425A
:1047A00004D0028842F48072028004E002884FF64E
:1047B000FF631A400280704721B1828842F00402F0
:1047C000828004E082884FF6FB731A408280704733
:1047D00021B1828842F01002828004E082884FF684
:1047E000EF731A408280704730B500220023848B1B
:1047F0004FF240052C40848302240484828B0C8871
:10480000B4F5007F01D00C8814B94FF4807308E030
:104810000C88B4F5407F03D00C88B4F5807F00D1BC
:1048200000238C888D892C434D882C431C4344F4F1
:1048300000642243828330BD0146888970478181AC
:10484000704721B1028842F40052028004E00288DD
:104850004DF6FF731A4002807047018841F4805181
:104860000180704702460020012901D0108B00E032
:10487000908A70470146088A70471AB183880B43B3
:10488000838002E083888B438380704730B50024A7
:1048900000230C110125A540ABB2AAB185881D43A8
:1048A000858014E00030014000380040003C0040AA
:1048B00000340140005001400054014008380240DB
:1048C00000127A000024F40085889D43858030BD65
:1048D0000246002013890B400BB1012000E00020AC
:1048E0007047CA4302817047F0B502460020002499
:1048F0000023002501F00F070126BE40B4B20B11C2
:1049000001269E40B3B2968806EA03051689264022
:1049100016B10DB1012000E00020F0BD10B500225D
:1049200001F00F040123A3409AB2D343038110BDC9
:1049300010B50FF033FD10BD10B50FF074FD10BDB4
:1049400010B50446204611F05BFD10BD10B53E4881
:104950000078012805D10FF083FC0FF0C4FD0FF0A3
:104960009AFC10BD70B504466FF00400FCF740FEE1
:10497000E11704EB5171C1F3C701344A1170E1171B
:1049800004EB5171CD1041F2883045430520304988
:1049900008804FF0E020006940F002004FF0E02175
:1049A000086108464561006940F00100086170BD7A
:1049B0002DE9F047074600264FF0E020D0F814908C
:1049C0002248007807FB00F800BFFFF7B1FF4FF067
:1049D000E020856911E04FF0E0208469AC420CD002
:1049E000AC4202D2281B064403E0A9EB0400284491
:1049F00006442546464500D300E0ECE700BFFFF73C
:104A00009BFFBDE8F08770B504460F480078A0B161
:104A10001048007888B90E480088844206DB0C48AC
:104A2000008894FBF0F52846FFF78AFF08480088C5
:104A300094FBF0F100FB114084B24FF47A7104FB57
:104A400001F0FFF7B5FF70BDC20200205800002042
:104A50005A000020B502002000BF704700BF504A36
:104A6000128802F04002002AF9D0C2B24C4B9A8060
:104A7000704710B588B0044601210846FDF7FAF8E2
:104A800001211020FDF750F9072209214548FCF7C4
:104A9000DEFE07220A214348FCF7D9FE4FF4C0602E
:104AA000069002208DF81C008DF81D0000208DF866
:104AB0001E0001208DF81F0006A93A48FCF73CFEB5
:104AC00002940020ADF80C00ADF80E00ADF8100017
:104AD000ADF814000C20ADF8120002A93048FEF722
:104AE00020F901212E48FEF7A4F940212C48FEF7B9
:104AF00088FA012240F225512948FEF750FA252074
:104B00008DF8040003208DF805008DF806000120C3
:104B10008DF8070001A8FCF71EFD08B010BD10B508
:104B20000FF09EFB40F225511D48FEF773FA10B3BB
:104B30001B48FEF7ADF9C4B21B48008800F40040E2
:104B4000C8B91948008800F4804060B10A2C03D02D
:104B500000201549088020E01348008840F40040F8
:104B60001149088019E00D2C06D10F48008840F447
:104B700080400D49088010E00B480088C0F30D000C
:104B80000A490C5408480088401C07490880084618
:104B90000088C72801DD002008800FF07CFB10BDD5
:104BA000001001400000024060000020340A002094
:104BB00010B58CB004461E230BAA03A9204600F0B2
:104BC000ADFE0090009810B101200CB010BD9DF812
:104BD0002C00044400200B900EE040489DF82C204F
:104BE00050F8221003A800F001FE00B908E09DF87B
:104BF0002C00401CC0B20B909DF82C000728ECD371
:104C000000BF9DF82C00072863D2DFE800F0040500
:104C10003C5E6564630000BF31A012F07DFA31A0F4
:104C200012F07AFA3FA012F077FA4EA012F074FA5E
:104C30005CA012F071FA6BA012F06EFA79A012F07B
:104C40006BFA86A012F068FA8BA012F065FA90A0B9
:104C500012F062FA94A012F05FFA99A012F05CFAD6
:104C60009EA012F059FAA4A012F056FAB0A012F0C9
:104C700053FABDA012F050FAC8A012F04DFAD4A019
:104C800012F04AFA9AE216A012F046FAE0A012F0E8
:104C900043FA00200B900EE0ED4800689DF82C20B0
:104CA00000EBC2004168EBA012F036FA9DF82C0030
:104CB000401CC0B20B90E648007D9DF82C10884245
:104CC000EADC07A012F028FA78E205A012F024FA34
:104CD000C4E171E245E219E2ECE100006400002069
:104CE0000D0A00002D2D2D2D2D2D2D2D2D2D2D2D91
:104CF0002D2D2D2D2D2D2D2D2D2D2D2D55534D4162
:104D000052542056332E312D2D2D2D2D2D2D2D2D60
:104D10002D2D2D2D2D2D2D2D2D2D2D2D2D2D2D20D0
:104D20000D0A00002020202055534D415254CAC77F
:104D3000D3C9414C49454E54454BBFAAB7A2B5C44F
:104D4000D2BBB8F6C1E9C7C9B5C4B4AEBFDAB5F7CE
:104D5000CAD4BBA5BDBBD7E9BCFE2CCDA8B9FD20EC
:104D60000D0A0000CBFC2CC4E3BFC9D2D4CDA8B936
:104D7000FDB4AEBFDAD6FACAD6B5F7D3C3B3CCD03A
:104D8000F2C0EFC3E6B5C4C8CEBACEBAAFCAFD2CE6
:104D9000B2A2D6B4D0D02ED2F2B4CB2CC4E3BFC9C9
:104DA0000D0A0000D2D4CBE6D2E2B8FCB8C4BAAF48
:104DB000CAFDB5C4CAE4C8EBB2CECAFD28D6A7B3B3
:104DC000D6CAFDD7D62831302F3136BDF8D6C62900
:104DD000A1A2D7D6B7FBB4AEA1A2BAAFCAFDC8EBA9
:104DE0000D0A0000BFDAB5D8D6B7B5C8D7F7CEAA36
:104DF000B2CECAFD292CB5A5B8F6BAAFCAFDD7EE1A
:104E0000B6E0D6A7B3D63130B8F6CAE4C8EBB2CE16
:104E1000CAFD2CB2A2D6A7B3D6BAAFCAFDB7B52089
:104E20000D0A0000BBD8D6B5CFD4CABE2ED0C2D48E
:104E3000F6B2CECAFDCFD4CABEBDF8D6C6C9E8D632
:104E4000C3B9A6C4DC2CD0C2D4F6BDF8D6C6D7AA46
:104E5000BBBBB9A6C4DC2E0D0A000000BCBCCAF561
:104E6000D6A7B3D63A7777772E6F70656E6564767E
:104E70002E636F6D0D0A000055534D415254D3D02F
:104E800037B8F6CFB5CDB3C3FCC1EE3A0D0A00007A
:104E90003F3A202020202020BBF1C8A1B0EFD6FA55
:104EA000D0C5CFA20D0A000068656C703A202020A2
:104EB000BBF1C8A1B0EFD6FAD0C5CFA20D0A000051
:104EC0006C6973743A202020BFC9D3C3B5C4BAAF8C
:104ED000CAFDC1D0B1ED0D0A0A00000069643A2094
:104EE00020202020BFC9D3C3BAAFCAFDB5C44944EE
:104EF000C1D0B1ED0D0A0A006865783A2020202063
:104F0000B2CECAFD3136BDF8D6C6CFD4CABE2CBA91
:104F1000F3B8FABFD5B8F12BCAFDD7D6BCB4D6B416
:104F2000D0D0BDF8D6C6D7AABBBB0D0A0A00000078
:104F30006465633A20202020B2CECAFD3130BDF82E
:104F4000D6C6CFD4CABE2CBAF3B8FABFD5B8F12BA7
:104F5000CAFDD7D6BCB4D6B4D0D0BDF8D6C6D7AA71
:104F6000BBBB0D0A0A00000072756E74696D653A6C
:104F7000312CBFAAC6F4BAAFCAFDD4CBD0D0BCC6C0
:104F8000CAB13B302CB9D8B1D5BAAFCAFDD4CBD059
:104F9000D0BCC6CAB13B0D0A0A000000C7EBB0B4D2
:104FA000D5D5B3CCD0F2B1E0D0B4B8F1CABDCAE423
:104FB000C8EBBAAFCAFDC3FBBCB0B2CECAFDB2A249
:104FC000D2D4BBD8B3B5BCFCBDE1CAF82E0D0A00E3
:104FD0002D2D2D2D2D2D2D2D2D2D2D2D2D2D2D2D01
:104FE0002D2D2D2D2D2D2D2D2D2D414C49454E5442
:104FF000454B2D2D2D2D2D2D2D2D2D2D2D2D2D2DAB
:105000002D2D2D2D2D2D2D2D2D2D2D200D0A00007A
:105010002D2D2D2D2D2D2D2D2D2D2D2D2D2D2D2DC0
:105020002D2D2D2D2D2D2D2D2DBAAFCAFDC7E5B55A
:10503000A52D2D2D2D2D2D2D2D2D2D2D2D2D2D2D28
:105040002D2D2D2D2D2D2D2D2D2D2D2D200D0A000D
:10505000B000002025730D0A00000000EFA012F040
:105060005BF800200B901AE0FC4909689DF82C20A1
:1050700001EBC20101AB02AA486803A900F074FC6D
:10508000F64800689DF82C1050F8312003A9F4A0D0
:1050900012F042F89DF82C00401CC0B20B90EF4873
:1050A000007D9DF82C108842DEDCAFF2CC3012F08F
:1050B00033F883E0AFF2D83012F02EF80BAA03A930
:1050C000204600F02DFD9DF82C00C8B9694603A8C4
:1050D00000F0BFFB0B909DF82C0020B9E5A00099D3
:1050E00012F01AF80EE09DF82C00042801D00220DE
:1050F0006BE5E3A012F010F80120D849C87501E073
:10510000022062E5DDA012F007F857E0DBA012F004
:1051100003F80BAA03A9204600F002FD9DF82C001D
:10512000C8B9694603A800F094FB0B909DF82C00C9
:1051300020B9D8A0009911F0EFFF0EE09DF82C00E7
:10514000042801D0022040E5D5A011F0E5FF0020A1
:10515000C249C87501E0022037E5C8A011F0DCFFA4
:105160002CE0C6A011F0D8FF0BAA03A9204600F03E
:10517000D7FC9DF82C00C8B9694603A800F069FB6C
:105180000B909DF82C0078B9B449009881F8EC0098
:10519000084690F8EC0018B1C6A011F0BDFF07E07A
:1051A000CBA011F0B9FF03E002200EE502200CE5D0
:1051B000B2A011F0B1FF01E0012006E500BF002020
:1051C00003E5CA48008820F00100C84908804FF66E
:1051D000FF70C6491C3108600020C44914310860C2
:1051E0009E49C1F8F0007047C048008800F00100F7
:1051F00040B19A48D0F8F0004FF6FF710844974943
:10520000C1F8F0009548D0F8F000B84914310968A9
:1052100008449249C1F8F0000846D0F8F000704701
:1052200010B5B248008800F0010058B18B490869F8
:1052300080470020AD49143108604FF47A70AB49C3
:105240001C310860A948008820F00100A7490880A7
:1052500010BD38B505460C46A548006840F004006E
:10526000A3490860A1481C300560001F04809F48C6
:10527000001F008840F001009C49091F08809B48DE
:105280001038008840F001009849103908801E202D
:105290008DF8000003208DF801008DF80200012038
:1052A0008DF803006846FCF756F938BD10B5044682
:1052B00004EBC40000EB04100122C2EB800081B2B9
:1052C0004FF47A70FFF7C5FF01206449C87510BD1F
:1052D00030B595B0054613AB12AA09A9284600F0CF
:1052E00043FB044614B1204615B030BD0020149095
:1052F00026E05A4909689DF8502001EBC20113AB22
:1053000011AA486801A900F02FFB04460CB1204601
:10531000EAE709A901A800F069FA60B99DF844001C
:105320009DF84810884201DD0220DDE79DF850001D
:105330004A4988750AE09DF85000401CC0B214909C
:105340004648007D9DF850108842D2DC00BF43489B
:10535000007D9DF85010884201D10420C4E714A9B3
:10536000284600F04EFC04460CB12046BCE79DF8F0
:1053700050003A4948750020B6E72DE9F0419AB04F
:105380003648847D007DA04202DC1AB0BDE8F08181
:105390003249096801EBC40106AB07AA486808A9AD
:1053A00000F0E2FA08A953A011F0B6FE0026BBE017
:1053B0002A48008B0121B1400840D8B122214FA0DA
:1053C00011F0AAFE304600F00FFC244924314718A2
:1053D00039464BA011F0A0FE222148A011F09CFEFE
:1053E000304600F001FC1D492431084410A941F861
:1053F00026008FE0304600F0F7FB184924310858AA
:1054000010A941F826001548C07D30B910A850F801
:1054100026103CA011F080FE7CE075E02D2D2D2D96
:105420002D2D2D2D2D2D2D2D2D2D2D2D2D2D2D2DAC
:105430002D2D2D2D2DBAAFCAFD204944202D2D2D07
:105440002D2D2D2D2D2D2D2D2D2D2D2D2D2D2D2D8C
:105450002D2D2D2D2D2D2D2D200D0A00B0000020DD
:1054600025732069642069733A0D0A305825303855
:10547000580D0A004845583A305825580D0A000082
:105480003136BDF8D6C6B2CECAFDCFD4CABE210DC4
:105490000A0000004445433A256C750D0A000000DF
:1054A0003130BDF8D6C6B2CECAFDCFD4CABE210DAA
:1054B0000A00000052756E2054696D652043616CCE
:1054C00063756C6174696F6E204F4E0D0A000000A9
:1054D00052756E2054696D652043616C63756C6113
:1054E00074696F6E204F46460D0A00001008004098
:1054F000403802400D0A2573280000002563000093
:1055000025730000256C750010A850F8261095A092
:1055100011F002FE9DF81C00401EB04202D093A084
:1055200011F0FAFD701CC6B29DF81C008642FFF611
:105530003FAF8FA011F0F0FDFFF743FE8D48407D97
:105540000B280DD2DFE800F0060D151E27323F4E66
:105550005F7287008749096851F834008047054623
:1055600090E0844A126852F8341010988847054633
:1055700088E0804B1B6853F83420DDE91001904728
:1055800005467FE07B4F3F6857F8343010A807C8C6
:105590009847054676E0DFF8DCC1DCF800C05CF82F
:1055A000347010A80FC8B84705466BE01498DFF8B0
:1055B000C4C10090DCF800C05CF8347010A80FC8BB
:1055C000B84705465EE0DDE91401DFF8A8C1CDE982
:1055D0000001DCF800C05CF8347010A80FC8B847B0
:1055E00005464FE0DDE914121698DFF888C1CDE9D1
:1055F00000120290DCF800C05CF8347010A80FC8EC
:10560000B84705463EE0DDE91423DDE91610DFF872
:1056100064C1CDE90023CDE90210DCF800C05CF8DC
:10562000347010A80FC8B84705462BE0DDE91523F4
:10563000DDE91710CDE90123CDE903101498DFF857
:1056400034C10090DCF800C05CF8347010A80FC8BA
:10565000B847054616E0DDE91623DDE91810CDE967
:105660000223CDE90410DDE91401DFF808C1CDE91A
:105670000001DCF800C05CF8347010A80FC8B8470F
:10568000054600BF00BFFFF7AFFD9DF818000128D9
:105690000CD13848C07D20B9294637A011F03CFD17
:1056A00007E0294636A011F037FD02E033A011F0E3
:1056B00033FD304890F8EC0088B12E48D0F8F00067
:1056C0000A21B0FBF1F201FB12072A48D0F8F000E2
:1056D000B0FBF1F83A4641462CA011F01DFD00BF89
:1056E00053E670B53148008800F40040002833D0FC
:1056F0002E48057800202E4948551E4881682C48C0
:10570000884704461CB91B49C868804721E02848DF
:10571000FFF74EFA0546012D00D02C46CCB1012CE6
:1057200006D0022C08D0032C0AD0042C10D10BE098
:1057300020A011F0F1FC0BE021A011F0EDFC07E03E
:1057400022A011F0E9FC03E023A011F0E5FC00BF6A
:1057500000BF00201549088070BD014608687047E9
:105760000160704730582558000000002C000000F0
:1057700029000000B00000203D256C753B0D0A009B
:105780003D305825583B0D0A0000000046756E63F9
:1057900074696F6E2052756E2054696D653A256488
:1057A0002E2531646D730D0A00000000600000209A
:1057B000340A0020BAAFCAFDB4EDCEF3210D0A00C1
:1057C000B2CECAFDB4EDCEF3210D0A00B2CECAFDB1
:1057D000CCABB6E0210D0A00CEB4D5D2B5BDC6A57E
:1057E000C5E4B5C4BAAFCAFD210D0A0002460AE0FD
:1057F00010780B78984201D001207047107800B9DA
:1058000002E0521C491CF3E700BF0020F5E706E068
:1058100002780A70027802B902E0401C491CF7E7DE
:1058200000BF70470146002005E00A7802B903E096
:10583000421CD0B2491CF8E700BF704710B50246C1
:10584000012000E050430B00A1F10104E1B2F9D1C5
:1058500010BD2DE9F04307460E4600254FF00A081B
:105860003C46002030601FE02078392802DC207898
:1058700030280ADA2078462802DC2078412804DA29
:105880002078582809D1012D07D12078412801DB43
:105890004FF01008681CC5B205E0207800B904E09C
:1058A0000120BDE8F083641CDEE700BF3C46B8F190
:1058B000100F0FD1032D01DA0220F2E720783028F3
:1058C00006D16078582803D1A41CA81EC5B204E0F4
:1058D0000320E6E70DB90420E3E71BE00DB1681EE5
:1058E000C5B22078392806DC2078302803DB207800
:1058F000A0F1300902E02078A0F13709294640469E
:10590000FFF79CFF316809FB00103060641C2078B1
:1059100000B900E0E2E700BF0020C2E710B504468E
:10592000002010700BE020780870641C491C10786F
:10593000401C10701078984201DB012010BD2078C7
:10594000202802D020780028EDD10020087000BF68
:10595000F4E70146491C00E0491C0878202801D1E1
:105960000029F9D1087870472DE9FF4F85B08046AE
:1059700089460027002004900390012002904FF0F8
:10598000000B002544461DE02078202816D005F0A5
:105990007F00052812DA0DB945F0800505F07F007B
:1059A000042803D120782A2800D00EE0207805F0C2
:1059B0007F010DF80100681CC5B202E0852D00D101
:1059C00003E0641C20780028DED100BF8DB10020E8
:1059D00005F07F010DF80100CBA16846FFF706FF37
:1059E00018B900210898017002E00121089801709F
:1059F00000254FF0000A444614E0641C0AF101003F
:105A000000F0FF0A2078202802D020782A2809D127
:105A10002046FFF79EFF0646282E03D02A2E01D0EF
:105A2000CDF810A02078282802D020780028E4D1D2
:105A30004446049810B10498401C04444FF0000AF6
:105A4000002654E0207810B94FF0010A50E0207889
:105A5000282803D116B9781CC7B213E0207829286A
:105A600008D13EB917B1781EC7B201E04FF0010A64
:105A700047B93DE02078222804D10EB9012000E08A
:105A80000020064647B9207820282FD0207889F8B2
:105A9000000009F1010929E020782C2804D1012017
:105AA0000290681CC5B214E02078202811D020781C
:105AB00028280ED04DB9BBF1050F06DA20780DF875
:105AC0000B000BF1010000F0FF0B0298401CC0B26C
:105AD0000290012F0AD10298022807D10298401C97
